{
  "_format": "hh-sol-artifact-1",
  "contractName": "MonadHumanToken",
  "sourceName": "contracts/MonadHumanToken.sol",
  "abi": [
    {
      "inputs": [],
      "stateMutability": "nonpayable",
      "type": "constructor"
    },
    {
      "inputs": [],
      "name": "AlreadyMinted",
      "type": "error"
    },
    {
      "inputs": [
        {
          "internalType": "address",
          "name": "sender",
          "type": "address"
        },
        {
          "internalType": "uint256",
          "name": "tokenId",
          "type": "uint256"
        },
        {
          "internalType": "address",
          "name": "owner",
          "type": "address"
        }
      ],
      "name": "ERC721IncorrectOwner",
      "type": "error"
    },
    {
      "inputs": [
        {
          "internalType": "address",
          "name": "operator",
          "type": "address"
        },
        {
          "internalType": "uint256",
          "name": "tokenId",
          "type": "uint256"
        }
      ],
      "name": "ERC721InsufficientApproval",
      "type": "error"
    },
    {
      "inputs": [
        {
          "internalType": "address",
          "name": "approver",
          "type": "address"
        }
      ],
      "name": "ERC721InvalidApprover",
      "type": "error"
    },
    {
      "inputs": [
        {
          "internalType": "address",
          "name": "operator",
          "type": "address"
        }
      ],
      "name": "ERC721InvalidOperator",
      "type": "error"
    },
    {
      "inputs": [
        {
          "internalType": "address",
          "name": "owner",
          "type": "address"
        }
      ],
      "name": "ERC721InvalidOwner",
      "type": "error"
    },
    {
      "inputs": [
        {
          "internalType": "address",
          "name": "receiver",
          "type": "address"
        }
      ],
      "name": "ERC721InvalidReceiver",
      "type": "error"
    },
    {
      "inputs": [
        {
          "internalType": "address",
          "name": "sender",
          "type": "address"
        }
      ],
      "name": "ERC721InvalidSender",
      "type": "error"
    },
    {
      "inputs": [
        {
          "internalType": "uint256",
          "name": "tokenId",
          "type": "uint256"
        }
      ],
      "name": "ERC721NonexistentToken",
      "type": "error"
    },
    {
      "inputs": [],
      "name": "NonTransferable",
      "type": "error"
    },
    {
      "inputs": [],
      "name": "OnlyRegistry",
      "type": "error"
    },
    {
      "inputs": [
        {
          "internalType": "address",
          "name": "owner",
          "type": "address"
        }
      ],
      "name": "OwnableInvalidOwner",
      "type": "error"
    },
    {
      "inputs": [
        {
          "internalType": "address",
          "name": "account",
          "type": "address"
        }
      ],
      "name": "OwnableUnauthorizedAccount",
      "type": "error"
    },
    {
      "anonymous": false,
      "inputs": [
        {
          "indexed": true,
          "internalType": "address",
          "name": "owner",
          "type": "address"
        },
        {
          "indexed": true,
          "internalType": "address",
          "name": "approved",
          "type": "address"
        },
        {
          "indexed": true,
          "internalType": "uint256",
          "name": "tokenId",
          "type": "uint256"
        }
      ],
      "name": "Approval",
      "type": "event"
    },
    {
      "anonymous": false,
      "inputs": [
        {
          "indexed": true,
          "internalType": "address",
          "name": "owner",
          "type": "address"
        },
        {
          "indexed": true,
          "internalType": "address",
          "name": "operator",
          "type": "address"
        },
        {
          "indexed": false,
          "internalType": "bool",
          "name": "approved",
          "type": "bool"
        }
      ],
      "name": "ApprovalForAll",
      "type": "event"
    },
    {
      "anonymous": false,
      "inputs": [
        {
          "indexed": true,
          "internalType": "address",
          "name": "previousOwner",
          "type": "address"
        },
        {
          "indexed": true,
          "internalType": "address",
          "name": "newOwner",
          "type": "address"
        }
      ],
      "name": "OwnershipTransferred",
      "type": "event"
    },
    {
      "anonymous": false,
      "inputs": [
        {
          "indexed": true,
          "internalType": "address",
          "name": "from",
          "type": "address"
        },
        {
          "indexed": true,
          "internalType": "address",
          "name": "to",
          "type": "address"
        },
        {
          "indexed": true,
          "internalType": "uint256",
          "name": "tokenId",
          "type": "uint256"
        }
      ],
      "name": "Transfer",
      "type": "event"
    },
    {
      "inputs": [
        {
          "internalType": "address",
          "name": "to",
          "type": "address"
        },
        {
          "internalType": "uint256",
          "name": "tokenId",
          "type": "uint256"
        }
      ],
      "name": "approve",
      "outputs": [],
      "stateMutability": "nonpayable",
      "type": "function"
    },
    {
      "inputs": [
        {
          "internalType": "address",
          "name": "owner",
          "type": "address"
        }
      ],
      "name": "balanceOf",
      "outputs": [
        {
          "internalType": "uint256",
          "name": "",
          "type": "uint256"
        }
      ],
      "stateMutability": "view",
      "type": "function"
    },
    {
      "inputs": [
        {
          "internalType": "uint256",
          "name": "tokenId",
          "type": "uint256"
        }
      ],
      "name": "burn",
      "outputs": [],
      "stateMutability": "nonpayable",
      "type": "function"
    },
    {
      "inputs": [
        {
          "internalType": "uint256",
          "name": "tokenId",
          "type": "uint256"
        }
      ],
      "name": "getApproved",
      "outputs": [
        {
          "internalType": "address",
          "name": "",
          "type": "address"
        }
      ],
      "stateMutability": "view",
      "type": "function"
    },
    {
      "inputs": [
        {
          "internalType": "address",
          "name": "",
          "type": "address"
        }
      ],
      "name": "hasMinted",
      "outputs": [
        {
          "internalType": "bool",
          "name": "",
          "type": "bool"
        }
      ],
      "stateMutability": "view",
      "type": "function"
    },
    {
      "inputs": [],
      "name": "identityRegistry",
      "outputs": [
        {
          "internalType": "address",
          "name": "",
          "type": "address"
        }
      ],
      "stateMutability": "view",
      "type": "function"
    },
    {
      "inputs": [
        {
          "internalType": "address",
          "name": "owner",
          "type": "address"
        },
        {
          "internalType": "address",
          "name": "operator",
          "type": "address"
        }
      ],
      "name": "isApprovedForAll",
      "outputs": [
        {
          "internalType": "bool",
          "name": "",
          "type": "bool"
        }
      ],
      "stateMutability": "view",
      "type": "function"
    },
    {
      "inputs": [
        {
          "internalType": "address",
          "name": "to",
          "type": "address"
        }
      ],
      "name": "mint",
      "outputs": [
        {
          "internalType": "uint256",
          "name": "",
          "type": "uint256"
        }
      ],
      "stateMutability": "nonpayable",
      "type": "function"
    },
    {
      "inputs": [],
      "name": "name",
      "outputs": [
        {
          "internalType": "string",
          "name": "",
          "type": "string"
        }
      ],
      "stateMutability": "view",
      "type": "function"
    },
    {
      "inputs": [],
      "name": "owner",
      "outputs": [
        {
          "internalType": "address",
          "name": "",
          "type": "address"
        }
      ],
      "stateMutability": "view",
      "type": "function"
    },
    {
      "inputs": [
        {
          "internalType": "uint256",
          "name": "tokenId",
          "type": "uint256"
        }
      ],
      "name": "ownerOf",
      "outputs": [
        {
          "internalType": "address",
          "name": "",
          "type": "address"
        }
      ],
      "stateMutability": "view",
      "type": "function"
    },
    {
      "inputs": [],
      "name": "renounceOwnership",
      "outputs": [],
      "stateMutability": "nonpayable",
      "type": "function"
    },
    {
      "inputs": [
        {
          "internalType": "address",
          "name": "from",
          "type": "address"
        },
        {
          "internalType": "address",
          "name": "to",
          "type": "address"
        },
        {
          "internalType": "uint256",
          "name": "tokenId",
          "type": "uint256"
        }
      ],
      "name": "safeTransferFrom",
      "outputs": [],
      "stateMutability": "nonpayable",
      "type": "function"
    },
    {
      "inputs": [
        {
          "internalType": "address",
          "name": "from",
          "type": "address"
        },
        {
          "internalType": "address",
          "name": "to",
          "type": "address"
        },
        {
          "internalType": "uint256",
          "name": "tokenId",
          "type": "uint256"
        },
        {
          "internalType": "bytes",
          "name": "data",
          "type": "bytes"
        }
      ],
      "name": "safeTransferFrom",
      "outputs": [],
      "stateMutability": "nonpayable",
      "type": "function"
    },
    {
      "inputs": [
        {
          "internalType": "address",
          "name": "operator",
          "type": "address"
        },
        {
          "internalType": "bool",
          "name": "approved",
          "type": "bool"
        }
      ],
      "name": "setApprovalForAll",
      "outputs": [],
      "stateMutability": "nonpayable",
      "type": "function"
    },
    {
      "inputs": [
        {
          "internalType": "address",
          "name": "_registry",
          "type": "address"
        }
      ],
      "name": "setIdentityRegistry",
      "outputs": [],
      "stateMutability": "nonpayable",
      "type": "function"
    },
    {
      "inputs": [
        {
          "internalType": "bytes4",
          "name": "interfaceId",
          "type": "bytes4"
        }
      ],
      "name": "supportsInterface",
      "outputs": [
        {
          "internalType": "bool",
          "name": "",
          "type": "bool"
        }
      ],
      "stateMutability": "view",
      "type": "function"
    },
    {
      "inputs": [],
      "name": "symbol",
      "outputs": [
        {
          "internalType": "string",
          "name": "",
          "type": "string"
        }
      ],
      "stateMutability": "view",
      "type": "function"
    },
    {
      "inputs": [
        {
          "internalType": "address",
          "name": "",
          "type": "address"
        }
      ],
      "name": "tokenOfOwner",
      "outputs": [
        {
          "internalType": "uint256",
          "name": "",
          "type": "uint256"
        }
      ],
      "stateMutability": "view",
      "type": "function"
    },
    {
      "inputs": [
        {
          "internalType": "uint256",
          "name": "tokenId",
          "type": "uint256"
        }
      ],
      "name": "tokenURI",
      "outputs": [
        {
          "internalType": "string",
          "name": "",
          "type": "string"
        }
      ],
      "stateMutability": "view",
      "type": "function"
    },
    {
      "inputs": [
        {
          "internalType": "address",
          "name": "from",
          "type": "address"
        },
        {
          "internalType": "address",
          "name": "to",
          "type": "address"
        },
        {
          "internalType": "uint256",
          "name": "tokenId",
          "type": "uint256"
        }
      ],
      "name": "transferFrom",
      "outputs": [],
      "stateMutability": "nonpayable",
      "type": "function"
    },
    {
      "inputs": [
        {
          "internalType": "address",
          "name": "newOwner",
          "type": "address"
        }
      ],
      "name": "transferOwnership",
      "outputs": [],
      "stateMutability": "nonpayable",
      "type": "function"
    }
  ],
  "bytecode": "0x608060405234801561001057600080fd5b50336040518060400160405280601181526020017026b7b730b210243ab6b0b7102a37b5b2b760791b8152506040518060400160405280600381526020016213521560ea1b815250816000908161006791906101a5565b50600161007482826101a5565b5050506001600160a01b0381166100a557604051631e4fbdf760e01b81526000600482015260240160405180910390fd5b6100ae816100b4565b50610263565b600680546001600160a01b038381166001600160a01b0319831681179093556040519116919082907f8be0079c531659141344cd1fd0a4f28419497f9722a3daafe3b4186f6b6457e090600090a35050565b634e487b7160e01b600052604160045260246000fd5b600181811c9082168061013057607f821691505b60208210810361015057634e487b7160e01b600052602260045260246000fd5b50919050565b601f8211156101a057806000526020600020601f840160051c8101602085101561017d5750805b601f840160051c820191505b8181101561019d5760008155600101610189565b50505b505050565b81516001600160401b038111156101be576101be610106565b6101d2816101cc845461011c565b84610156565b6020601f82116001811461020657600083156101ee5750848201515b600019600385901b1c1916600184901b17845561019d565b600084815260208120601f198516915b828110156102365787850151825560209485019460019092019101610216565b50848210156102545786840151600019600387901b60f8161c191681555b50505050600190811b01905550565b611386806102726000396000f3fe608060405234801561001057600080fd5b50600436106101425760003560e01c80636a627842116100b8578063a22cb4651161007c578063a22cb465146102bb578063b88d4fde146102ce578063c87b56dd146102e1578063cbf3f861146102f4578063e985e9c514610307578063f2fde38b1461031a57600080fd5b80636a6278421461027457806370a0823114610287578063715018a61461029a5780638da5cb5b146102a257806395d89b41146102b357600080fd5b806323b872dd1161010a57806323b872dd146101d7578063294cdf0d146101ea57806338e21cce1461021857806342842e0e1461023b57806342966c681461024e5780636352211e1461026157600080fd5b806301ffc9a71461014757806306fdde031461016f578063081812fc14610184578063095ea7b3146101af578063134e18f4146101c4575b600080fd5b61015a610155366004610fc6565b61032d565b60405190151581526020015b60405180910390f35b61017761037f565b6040516101669190611033565b610197610192366004611046565b610411565b6040516001600160a01b039091168152602001610166565b6101c26101bd36600461107b565b61043a565b005b600854610197906001600160a01b031681565b6101c26101e53660046110a5565b610449565b61020a6101f83660046110e2565b600a6020526000908152604090205481565b604051908152602001610166565b61015a6102263660046110e2565b60096020526000908152604090205460ff1681565b6101c26102493660046110a5565b6104d9565b6101c261025c366004611046565b6104f9565b61019761026f366004611046565b610565565b61020a6102823660046110e2565b610570565b61020a6102953660046110e2565b61062f565b6101c2610677565b6006546001600160a01b0316610197565b61017761068b565b6101c26102c93660046110fd565b61069a565b6101c26102dc36600461114f565b6106a5565b6101776102ef366004611046565b6106bd565b6101c26103023660046110e2565b610732565b61015a610315366004611233565b61075c565b6101c26103283660046110e2565b61078a565b60006001600160e01b031982166380ac58cd60e01b148061035e57506001600160e01b03198216635b5e139f60e01b145b8061037957506301ffc9a760e01b6001600160e01b03198316145b92915050565b60606000805461038e90611266565b80601f01602080910402602001604051908101604052809291908181526020018280546103ba90611266565b80156104075780601f106103dc57610100808354040283529160200191610407565b820191906000526020600020905b8154815290600101906020018083116103ea57829003601f168201915b5050505050905090565b600061041c826107c8565b506000828152600460205260409020546001600160a01b0316610379565b610445828233610801565b5050565b6001600160a01b03821661047857604051633250574960e11b8152600060048201526024015b60405180910390fd5b600061048583833361080e565b9050836001600160a01b0316816001600160a01b0316146104d3576040516364283d7b60e01b81526001600160a01b038086166004830152602482018490528216604482015260640161046f565b50505050565b6104f4838383604051806020016040528060008152506106a5565b505050565b6008546001600160a01b03163314610524576040516310f5403960e31b815260040160405180910390fd5b600061052f82610565565b6001600160a01b0381166000908152600960209081526040808320805460ff19169055600a909152812055905061044582610864565b6000610379826107c8565b6008546000906001600160a01b0316331461059e576040516310f5403960e31b815260040160405180910390fd5b6001600160a01b03821660009081526009602052604090205460ff16156105d857604051631bbdf5c560e31b815260040160405180910390fd5b600780549060006105e8836112a0565b90915550506007546105fa838261089f565b6001600160a01b039092166000908152600960209081526040808320805460ff19166001179055600a90915290208290555090565b60006001600160a01b03821661065b576040516322718ad960e21b81526000600482015260240161046f565b506001600160a01b031660009081526003602052604090205490565b61067f6108b9565b61068960006108e6565b565b60606001805461038e90611266565b610445338383610938565b6106b0848484610449565b6104d333858585856109d7565b60606106c8826107c8565b5060006106e060408051602081019091526000815290565b90506000815111610700576040518060200160405280600081525061072b565b8061070a84610b02565b60405160200161071b9291906112c7565b6040516020818303038152906040525b9392505050565b61073a6108b9565b600880546001600160a01b0319166001600160a01b0392909216919091179055565b6001600160a01b03918216600090815260056020908152604080832093909416825291909152205460ff1690565b6107926108b9565b6001600160a01b0381166107bc57604051631e4fbdf760e01b81526000600482015260240161046f565b6107c5816108e6565b50565b6000818152600260205260408120546001600160a01b03168061037957604051637e27328960e01b81526004810184905260240161046f565b6104f48383836001610b95565b60008061081c858585610c9b565b90506001600160a01b0381161580159061083e57506001600160a01b03851615155b1561085c57604051639cbe235760e01b815260040160405180910390fd5b949350505050565b6000610873600083600061080e565b90506001600160a01b03811661044557604051637e27328960e01b81526004810183905260240161046f565b610445828260405180602001604052806000815250610d94565b6006546001600160a01b031633146106895760405163118cdaa760e01b815233600482015260240161046f565b600680546001600160a01b038381166001600160a01b0319831681179093556040519116919082907f8be0079c531659141344cd1fd0a4f28419497f9722a3daafe3b4186f6b6457e090600090a35050565b6001600160a01b03821661096a57604051630b61174360e31b81526001600160a01b038316600482015260240161046f565b6001600160a01b03838116600081815260056020908152604080832094871680845294825291829020805460ff191686151590811790915591519182527f17307eab39ab6107e8899845ad3d59bd9653f200f220920489ca2b5937696c31910160405180910390a3505050565b6001600160a01b0383163b15610afb57604051630a85bd0160e11b81526001600160a01b0384169063150b7a0290610a199088908890879087906004016112f6565b6020604051808303816000875af1925050508015610a54575060408051601f3d908101601f19168201909252610a5191810190611333565b60015b610abd573d808015610a82576040519150601f19603f3d011682016040523d82523d6000602084013e610a87565b606091505b508051600003610ab557604051633250574960e11b81526001600160a01b038516600482015260240161046f565b805160208201fd5b6001600160e01b03198116630a85bd0160e11b14610af957604051633250574960e11b81526001600160a01b038516600482015260240161046f565b505b5050505050565b60606000610b0f83610dac565b600101905060008167ffffffffffffffff811115610b2f57610b2f611139565b6040519080825280601f01601f191660200182016040528015610b59576020820181803683370190505b5090508181016020015b600019016f181899199a1a9b1b9c1cb0b131b232b360811b600a86061a8153600a8504945084610b6357509392505050565b8080610ba957506001600160a01b03821615155b15610c6b576000610bb9846107c8565b90506001600160a01b03831615801590610be55750826001600160a01b0316816001600160a01b031614155b8015610bf85750610bf6818461075c565b155b15610c215760405163a9fbf51f60e01b81526001600160a01b038416600482015260240161046f565b8115610c695783856001600160a01b0316826001600160a01b03167f8c5be1e5ebec7d5bd14f71427d1e84f3dd0314c0f7b2291e5b200ac8c7c3b92560405160405180910390a45b505b5050600090815260046020526040902080546001600160a01b0319166001600160a01b0392909216919091179055565b6000828152600260205260408120546001600160a01b0390811690831615610cc857610cc8818486610e84565b6001600160a01b03811615610d0657610ce5600085600080610b95565b6001600160a01b038116600090815260036020526040902080546000190190555b6001600160a01b03851615610d35576001600160a01b0385166000908152600360205260409020805460010190555b60008481526002602052604080822080546001600160a01b0319166001600160a01b0389811691821790925591518793918516917fddf252ad1be2c89b69c2b068fc378daa952ba7f163c4a11628f55a4df523b3ef91a4949350505050565b610d9e8383610ee8565b6104f43360008585856109d7565b60008072184f03e93ff9f4daa797ed6e38ed64bf6a1f0160401b8310610deb5772184f03e93ff9f4daa797ed6e38ed64bf6a1f0160401b830492506040015b6d04ee2d6d415b85acef81000000008310610e17576d04ee2d6d415b85acef8100000000830492506020015b662386f26fc100008310610e3557662386f26fc10000830492506010015b6305f5e1008310610e4d576305f5e100830492506008015b6127108310610e6157612710830492506004015b60648310610e73576064830492506002015b600a83106103795760010192915050565b610e8f838383610f4d565b6104f4576001600160a01b038316610ebd57604051637e27328960e01b81526004810182905260240161046f565b60405163177e802f60e01b81526001600160a01b03831660048201526024810182905260440161046f565b6001600160a01b038216610f1257604051633250574960e11b81526000600482015260240161046f565b6000610f208383600061080e565b90506001600160a01b038116156104f4576040516339e3563760e11b81526000600482015260240161046f565b60006001600160a01b0383161580159061085c5750826001600160a01b0316846001600160a01b03161480610f875750610f87848461075c565b8061085c5750506000908152600460205260409020546001600160a01b03908116911614919050565b6001600160e01b0319811681146107c557600080fd5b600060208284031215610fd857600080fd5b813561072b81610fb0565b60005b83811015610ffe578181015183820152602001610fe6565b50506000910152565b6000815180845261101f816020860160208601610fe3565b601f01601f19169290920160200192915050565b60208152600061072b6020830184611007565b60006020828403121561105857600080fd5b5035919050565b80356001600160a01b038116811461107657600080fd5b919050565b6000806040838503121561108e57600080fd5b6110978361105f565b946020939093013593505050565b6000806000606084860312156110ba57600080fd5b6110c38461105f565b92506110d16020850161105f565b929592945050506040919091013590565b6000602082840312156110f457600080fd5b61072b8261105f565b6000806040838503121561111057600080fd5b6111198361105f565b91506020830135801515811461112e57600080fd5b809150509250929050565b634e487b7160e01b600052604160045260246000fd5b6000806000806080858703121561116557600080fd5b61116e8561105f565b935061117c6020860161105f565b925060408501359150606085013567ffffffffffffffff81111561119f57600080fd5b8501601f810187136111b057600080fd5b803567ffffffffffffffff8111156111ca576111ca611139565b604051601f8201601f19908116603f0116810167ffffffffffffffff811182821017156111f9576111f9611139565b60405281815282820160200189101561121157600080fd5b8160208401602083013760006020838301015280935050505092959194509250565b6000806040838503121561124657600080fd5b61124f8361105f565b915061125d6020840161105f565b90509250929050565b600181811c9082168061127a57607f821691505b60208210810361129a57634e487b7160e01b600052602260045260246000fd5b50919050565b6000600182016112c057634e487b7160e01b600052601160045260246000fd5b5060010190565b600083516112d9818460208801610fe3565b8351908301906112ed818360208801610fe3565b01949350505050565b6001600160a01b038581168252841660208201526040810183905260806060820181905260009061132990830184611007565b9695505050505050565b60006020828403121561134557600080fd5b815161072b81610fb056fea264697066735822122095593207fba6917b2269bb27f4020656522ce395344bd8ef957c73a6287189f164736f6c634300081c0033",
  "linkReferences": {},
  "deployedLinkReferences": {}
}