{
  "_format": "hh-sol-artifact-1",
  "contractName": "MonadIDSubscription",
  "sourceName": "contracts/MonadIDSubscription.sol",
  "abi": [
    {
      "inputs": [],
      "stateMutability": "nonpayable",
      "type": "constructor"
    },
    {
      "inputs": [],
      "name": "AlreadySubscribed",
      "type": "error"
    },
    {
      "inputs": [],
      "name": "IncorrectPayment",
      "type": "error"
    },
    {
      "inputs": [],
      "name": "InvalidTier",
      "type": "error"
    },
    {
      "inputs": [],
      "name": "NoActiveSubscription",
      "type": "error"
    },
    {
      "inputs": [],
      "name": "NothingToWithdraw",
      "type": "error"
    },
    {
      "inputs": [
        {
          "internalType": "address",
          "name": "owner",
          "type": "address"
        }
      ],
      "name": "OwnableInvalidOwner",
      "type": "error"
    },
    {
      "inputs": [
        {
          "internalType": "address",
          "name": "account",
          "type": "address"
        }
      ],
      "name": "OwnableUnauthorizedAccount",
      "type": "error"
    },
    {
      "anonymous": false,
      "inputs": [
        {
          "indexed": true,
          "internalType": "address",
          "name": "previousOwner",
          "type": "address"
        },
        {
          "indexed": true,
          "internalType": "address",
          "name": "newOwner",
          "type": "address"
        }
      ],
      "name": "OwnershipTransferred",
      "type": "event"
    },
    {
      "anonymous": false,
      "inputs": [
        {
          "indexed": true,
          "internalType": "address",
          "name": "subscriber",
          "type": "address"
        },
        {
          "indexed": false,
          "internalType": "enum MonadIDSubscription.Tier",
          "name": "tier",
          "type": "uint8"
        },
        {
          "indexed": false,
          "internalType": "uint256",
          "name": "expiresAt",
          "type": "uint256"
        }
      ],
      "name": "Renewed",
      "type": "event"
    },
    {
      "anonymous": false,
      "inputs": [
        {
          "indexed": true,
          "internalType": "address",
          "name": "subscriber",
          "type": "address"
        },
        {
          "indexed": false,
          "internalType": "enum MonadIDSubscription.Tier",
          "name": "tier",
          "type": "uint8"
        },
        {
          "indexed": false,
          "internalType": "uint256",
          "name": "expiresAt",
          "type": "uint256"
        }
      ],
      "name": "Subscribed",
      "type": "event"
    },
    {
      "anonymous": false,
      "inputs": [
        {
          "indexed": true,
          "internalType": "address",
          "name": "owner",
          "type": "address"
        },
        {
          "indexed": false,
          "internalType": "uint256",
          "name": "amount",
          "type": "uint256"
        }
      ],
      "name": "Withdrawn",
      "type": "event"
    },
    {
      "inputs": [],
      "name": "ENTERPRISE_LIMIT",
      "outputs": [
        {
          "internalType": "uint256",
          "name": "",
          "type": "uint256"
        }
      ],
      "stateMutability": "view",
      "type": "function"
    },
    {
      "inputs": [],
      "name": "ENTERPRISE_PRICE",
      "outputs": [
        {
          "internalType": "uint256",
          "name": "",
          "type": "uint256"
        }
      ],
      "stateMutability": "view",
      "type": "function"
    },
    {
      "inputs": [],
      "name": "FREE_LIMIT",
      "outputs": [
        {
          "internalType": "uint256",
          "name": "",
          "type": "uint256"
        }
      ],
      "stateMutability": "view",
      "type": "function"
    },
    {
      "inputs": [],
      "name": "PRO_LIMIT",
      "outputs": [
        {
          "internalType": "uint256",
          "name": "",
          "type": "uint256"
        }
      ],
      "stateMutability": "view",
      "type": "function"
    },
    {
      "inputs": [],
      "name": "PRO_PRICE",
      "outputs": [
        {
          "internalType": "uint256",
          "name": "",
          "type": "uint256"
        }
      ],
      "stateMutability": "view",
      "type": "function"
    },
    {
      "inputs": [],
      "name": "SUBSCRIPTION_DURATION",
      "outputs": [
        {
          "internalType": "uint256",
          "name": "",
          "type": "uint256"
        }
      ],
      "stateMutability": "view",
      "type": "function"
    },
    {
      "inputs": [
        {
          "internalType": "address",
          "name": "_subscriber",
          "type": "address"
        }
      ],
      "name": "getSubscription",
      "outputs": [
        {
          "components": [
            {
              "internalType": "enum MonadIDSubscription.Tier",
              "name": "tier",
              "type": "uint8"
            },
            {
              "internalType": "uint256",
              "name": "expiresAt",
              "type": "uint256"
            },
            {
              "internalType": "uint256",
              "name": "verificationsUsed",
              "type": "uint256"
            },
            {
              "internalType": "uint256",
              "name": "verificationLimit",
              "type": "uint256"
            }
          ],
          "internalType": "struct MonadIDSubscription.Subscription",
          "name": "",
          "type": "tuple"
        }
      ],
      "stateMutability": "view",
      "type": "function"
    },
    {
      "inputs": [
        {
          "internalType": "address",
          "name": "_subscriber",
          "type": "address"
        }
      ],
      "name": "isActive",
      "outputs": [
        {
          "internalType": "bool",
          "name": "",
          "type": "bool"
        }
      ],
      "stateMutability": "view",
      "type": "function"
    },
    {
      "inputs": [],
      "name": "owner",
      "outputs": [
        {
          "internalType": "address",
          "name": "",
          "type": "address"
        }
      ],
      "stateMutability": "view",
      "type": "function"
    },
    {
      "inputs": [],
      "name": "renew",
      "outputs": [],
      "stateMutability": "payable",
      "type": "function"
    },
    {
      "inputs": [],
      "name": "renounceOwnership",
      "outputs": [],
      "stateMutability": "nonpayable",
      "type": "function"
    },
    {
      "inputs": [
        {
          "internalType": "enum MonadIDSubscription.Tier",
          "name": "_tier",
          "type": "uint8"
        }
      ],
      "name": "subscribe",
      "outputs": [],
      "stateMutability": "payable",
      "type": "function"
    },
    {
      "inputs": [
        {
          "internalType": "address",
          "name": "",
          "type": "address"
        }
      ],
      "name": "subscriptions",
      "outputs": [
        {
          "internalType": "enum MonadIDSubscription.Tier",
          "name": "tier",
          "type": "uint8"
        },
        {
          "internalType": "uint256",
          "name": "expiresAt",
          "type": "uint256"
        },
        {
          "internalType": "uint256",
          "name": "verificationsUsed",
          "type": "uint256"
        },
        {
          "internalType": "uint256",
          "name": "verificationLimit",
          "type": "uint256"
        }
      ],
      "stateMutability": "view",
      "type": "function"
    },
    {
      "inputs": [
        {
          "internalType": "address",
          "name": "newOwner",
          "type": "address"
        }
      ],
      "name": "transferOwnership",
      "outputs": [],
      "stateMutability": "nonpayable",
      "type": "function"
    },
    {
      "inputs": [],
      "name": "withdraw",
      "outputs": [],
      "stateMutability": "nonpayable",
      "type": "function"
    }
  ],
  "bytecode": "0x6080604052348015600f57600080fd5b503380603557604051631e4fbdf760e01b81526000600482015260240160405180910390fd5b603c816041565b506091565b600080546001600160a01b038381166001600160a01b0319831681178455604051919092169283917f8be0079c531659141344cd1fd0a4f28419497f9722a3daafe3b4186f6b6457e09190a35050565b610a48806100a06000396000f3fe6080604052600436106100e85760003560e01c80638da5cb5b1161008a5780639f8a13d7116100595780639f8a13d71461021b578063f046395a1461024b578063f2fde38b146102a4578063f6847c82146102c457600080fd5b80638da5cb5b146101b257806390061a0a146101da5780639162ed70146101ef57806396e860381461020557600080fd5b80633ccfd60b116100c65780633ccfd60b1461015857806349c7e6391461016d578063715018a6146101805780638551fee51461019557600080fd5b80630cbebc24146100ed5780630d932e701461012357806324c082521461012d575b600080fd5b3480156100f957600080fd5b5061010d6101083660046108e7565b6102db565b60405161011a919061094f565b60405180910390f35b61012b61037b565b005b34801561013957600080fd5b5061014a68056bc75e2d6310000081565b60405190815260200161011a565b34801561016457600080fd5b5061012b6104bc565b61012b61017b366004610986565b610572565b34801561018c57600080fd5b5061012b6107b5565b3480156101a157600080fd5b5061014a683635c9adc5dea0000081565b3480156101be57600080fd5b506000546040516001600160a01b03909116815260200161011a565b3480156101e657600080fd5b5061014a606481565b3480156101fb57600080fd5b5061014a61271081565b34801561021157600080fd5b5061014a60001981565b34801561022757600080fd5b5061023b6102363660046108e7565b6107c9565b604051901515815260200161011a565b34801561025757600080fd5b506102946102663660046108e7565b6001602081905260009182526040909120805491810154600282015460039092015460ff9093169290919084565b60405161011a94939291906109a7565b3480156102b057600080fd5b5061012b6102bf3660046108e7565b610827565b3480156102d057600080fd5b5061014a62278d0081565b610307604080516080810190915280600081526020016000815260200160008152602001600081525090565b6001600160a01b038216600090815260016020526040908190208151608081019092528054829060ff16600281111561034257610342610917565b600281111561035357610353610917565b8152600182015460208201526002820154604082015260039091015460609091015292915050565b33600090815260016020526040812060038101549091036103af57604051635eb2472560e01b815260040160405180910390fd5b6000815460ff1660028111156103c7576103c7610917565b036103e55760405163e142361760e01b815260040160405180910390fd5b60006001825460ff1660028111156103ff576103ff610917565b1461041357683635c9adc5dea0000061041e565b68056bc75e2d631000005b90508034146104405760405163569e8c1160e01b815260040160405180910390fd5b6000428360010154116104535742610459565b82600101545b905061046862278d00826109d0565b6001840181905560006002850155835460405133927f0db0cdee0835894cd85c3775c88c5f58768a508801b3344e5b16b2e95ebf0823926104af9260ff90911691906109f7565b60405180910390a2505050565b6104c461086a565b4760008190036104e757604051630686827b60e51b815260040160405180910390fd5b600080546040516001600160a01b039091169183156108fc02918491818181858888f19350505050158015610520573d6000803e3d6000fd5b506000546001600160a01b03166001600160a01b03167f7084f5476618d8e60b11ef0d7d3f06914655adb8793e28ff7f018d4c76d505d58260405161056791815260200190565b60405180910390a250565b600081600281111561058657610586610917565b0361063d5734156105aa5760405163569e8c1160e01b815260040160405180910390fd5b3360009081526001602052604090206003810154156105dc57604051632fec509960e11b815260040160405180910390fd5b805460ff19168155600019600182018190556000600283018190556064600384015560405133927f044f95a2d17727b5b87e4f23d70278b59a2b0b285289cc9021cac8cdba4797b792610631929091906109f7565b60405180910390a25050565b600080600183600281111561065457610654610917565b0361066e575068056bc75e2d6310000090506127106106b5565b600283600281111561068257610682610917565b0361069c5750683635c9adc5dea0000090506000196106b5565b60405163e142361760e01b815260040160405180910390fd5b8134146106d55760405163569e8c1160e01b815260040160405180910390fd5b60006106e462278d00426109d0565b9050604051806080016040528085600281111561070357610703610917565b81526020808201849052600060408084018290526060909301869052338152600191829052919091208251815491929091839160ff199091169083600281111561074f5761074f610917565b02179055506020820151600182015560408083015160028301556060909201516003909101555133907f044f95a2d17727b5b87e4f23d70278b59a2b0b285289cc9021cac8cdba4797b7906107a790879085906109f7565b60405180910390a250505050565b6107bd61086a565b6107c76000610897565b565b6001600160a01b0381166000908152600160205260408120600381015482036107f55750600092915050565b6000815460ff16600281111561080d5761080d610917565b0361081b5750600192915050565b60010154421092915050565b61082f61086a565b6001600160a01b03811661085e57604051631e4fbdf760e01b8152600060048201526024015b60405180910390fd5b61086781610897565b50565b6000546001600160a01b031633146107c75760405163118cdaa760e01b8152336004820152602401610855565b600080546001600160a01b038381166001600160a01b0319831681178455604051919092169283917f8be0079c531659141344cd1fd0a4f28419497f9722a3daafe3b4186f6b6457e09190a35050565b6000602082840312156108f957600080fd5b81356001600160a01b038116811461091057600080fd5b9392505050565b634e487b7160e01b600052602160045260246000fd5b6003811061094b57634e487b7160e01b600052602160045260246000fd5b9052565b600060808201905061096282845161092d565b60208301516020830152604083015160408301526060830151606083015292915050565b60006020828403121561099857600080fd5b81356003811061091057600080fd5b608081016109b5828761092d565b84602083015283604083015282606083015295945050505050565b808201808211156109f157634e487b7160e01b600052601160045260246000fd5b92915050565b60408101610a05828561092d565b826020830152939250505056fea264697066735822122093e6fdf28c1d71bd0598dc9abc9052c8190576c5fc3c468f929391971f863dd764736f6c634300081c0033",
  "linkReferences": {},
  "deployedLinkReferences": {}
}